{
  "contractName": "Faucet",
  "abi": [
    {
      "stateMutability": "payable",
      "type": "receive",
      "payable": true
    },
    {
      "inputs": [
        {
          "internalType": "uint256",
          "name": "withdraw_amount",
          "type": "uint256"
        }
      ],
      "name": "withdraw",
      "outputs": [],
      "stateMutability": "nonpayable",
      "type": "function"
    }
  ],
  "bytecode": "0x608060405234801561001057600080fd5b50610154806100206000396000f3fe6080604052600436106100225760003560e01c80632e1a7d4d1461002e57610029565b3661002957005b600080fd5b34801561003a57600080fd5b50610055600480360381019061005091906100f1565b610057565b005b67016345785d8a000081111561006c57600080fd5b3373ffffffffffffffffffffffffffffffffffffffff166108fc829081150290604051600060405180830381858888f193505050501580156100b2573d6000803e3d6000fd5b5050565b600080fd5b6000819050919050565b6100ce816100bb565b81146100d957600080fd5b50565b6000813590506100eb816100c5565b92915050565b600060208284031215610107576101066100b6565b5b6000610115848285016100dc565b9150509291505056fea26469706673582212203482f84bc7cb3b3128aec4cf9e54ee5c664598d79e4c6cca29ef60674f35b19664736f6c634300080d0033",
  "immutableReferences": {},
  "source": "// SPDX-License-Identifier: CC-BY-SA-4.0\r\n\r\n// Version of Solidity compiler this program was written for\r\npragma solidity 0.8.13;\r\n\r\n// Our first contract is a faucet!\r\ncontract Faucet {\r\n\r\n\r\n\r\n    // Accept any incoming amount\r\n    receive() external payable {    }\r\n\r\n    // Give out ether to anyone who asks\r\n    function withdraw(uint withdraw_amount) public {\r\n        // Limit withdrawal amount\r\n        require(withdraw_amount <= 0.1 ether);\r\n\r\n        // Send the amount to the address that requested it\r\n        //msg.sender.transfer(withdraw_amount);\r\n        payable(msg.sender).transfer(withdraw_amount);\r\n\r\n    }\r\n\r\n}",
  "sourcePath": "C:\\Users\\conta\\OneDrive\\Desktop\\MK\\source\\Faucet\\contracts\\Faucet.sol",
  "compiler": {
    "name": "solc",
    "version": "0.8.13+commit.abaa5c0e.Emscripten.clang"
  },
  "schemaVersion": "3.4.7",
  "updatedAt": "2022-05-11T07:43:15.738Z",
  "networkType": "ethereum",
  "devdoc": {
    "kind": "dev",
    "methods": {},
    "version": 1
  },
  "userdoc": {
    "kind": "user",
    "methods": {},
    "version": 1
  }
}